:02000004000BEF
:10000000FCFF002001240B00A9230B00A9230B00F7
:10001000A9230B00A9230B00A9230B00A9230B0084
:10002000A9230B00A9230B00A9230B00A9230B0074
:10003000A9230B00A9230B00A9230B00A9230B0064
:10004000A9230B00A9230B00A9230B00A9230B0054
:10240000FFF7D6FF00F010F8FFF7E4FF00F08CF9BB
:1024100000F05AF800F03AF9FFF79EFFFFF75CFF73
:08242000FFF708FFFCE7FEE7EF
:1022080081B01CF8019B0BF8019BBBEB0A0FF8D1BE
:0422180001B070475A
:10231C0081B04FF000094FF0000CBDEB0A0F04DC4C
:10232C00BDEB0B0F01DBD446EA464BF8049BBBEB31
:10233C000A0FFAD1BCEB0A0F05DDE246D9F800B062
:0A234C000BF1040BF1E701B070473C
:1023580081B0CDF800E0012207210020FFF798FEA8
:10236800002201210020FFF793FE0C4801460020BF
:10237800FFF7FAFE42F280510120FFF7D1FE46F640
:10238800FE17C0F2180700BF00BF7F1EFDD100BFB7
:1023980000BF00BFDDF800E001B0704788260B00E1
:1020980081B0CDF800E05FFA81F95FFA82FA1DE0BD
:1020A8005FFA8AF15FFA89F0FFF7D4FB1FE05FFA65
:1020B8008AF15FFA89F0FFF7AFFC18E05FFA8AF15E
:1020C8005FFA89F0FFF7E4FA11E05FFA8AF15FFA44
:1020D80089F0FFF7EDF90AE0012008E00028DFD0D9
:1020E8000128E4D00228E9D00328EED0F4E7DDF88F
:0620F80000E001B070479A
:10185C0081B0CDF800E0A9E0012905D140F20101E9
:10186C006548FFF755FB04E040F201016248FFF7C1
:10187C007BFABBE0012905D140F220015F48FFF75C
:10188C0047FB04E040F220015C48FFF76DFAADE045
:10189C00012905D140F208015948FFF739FB04E052
:1018AC0040F208015648FFF75FFA9FE0012905D185
:1018BC0040F210015348FFF72BFB04E040F21001FB
:1018CC005048FFF751FA91E0012905D140F240014F
:1018DC004C48FFF71DFB04E040F240014948FFF77C
:1018EC0043FA83E0012905D140F210014448FFF787
:1018FC000FFB04E040F210014148FFF735FA75E0A8
:10190C00012905D140F210013F48FFF701FB04E02B
:10191C0040F210013C48FFF727FA67E0012905D196
:10192C0040F201013748FFF7F3FA04E040F20101FD
:10193C003448FFF719FA59E0012905D140F220018A
:10194C003248FFF7E5FA04E040F220012F48FFF798
:10195C000BFA4BE0012905D140F210012B48FFF79F
:10196C00D7FA04E040F210012848FFF7FDF93DE0FA
:10197C00012905D140F201012548FFF7C9FA04E01D
:10198C0040F201012248FFF7EFF92FE0012905D1C0
:10199C0040F280011A48FFF7BBFA04E040F28001E4
:1019AC001748FFF7E1F921E0012020E000283FF47F
:1019BC0053AF01283FF45EAF02283FF469AF032810
:1019CC003FF474AF04283FF47FAF05283FF48AAF8F
:1019DC0006283FF495AF0728A0D00828ACD00928DA
:1019EC00B8D00A28C4D00B28D0D0DDE70020DDF811
:1019FC0000E001B0704700BF0012084080100840A2
:101A0C0000100840601008406011084000110840A8
:041A1C00201008404E
:100F1C0081B0CDF800E0044AC9B2FFF7B7FDDDF8A7
:0C0F2C0000E001B0704700BF000410009E
:100A980081B01446314B984203D8314B984200D369
:100AA80000E058E02E4BC31A03F01F0303B152E0D5
:100AB800064600F5A0624FF6FF7304EA03031846E2
:100AC800284B04EA03031B0C40F20008CFB201468E
:100AD8001846B8F1080F3ED201231BB203FA08F3F7
:100AE8001BB21CB207EA0403A34231D101F44053FC
:100AF8008BB14FEA8803F5182C686FF4405304EA69
:100B080003032B604FEA8803F51801F440542B685F
:100B180023432B601CE04FEA8803F5182C68114B1F
:100B280004EA03032B604FEA8803F41823680B4395
:100B380023604FEA8803D5182C686FF0FF0304EA96
:100B480003032B604FEA8803D41823680343236008
:100B580008F10108BDE701B0704700BFC0120840A6
:080B6800001008400000FFFF2F
:100D740081B0CDF800E0044AC9B2FFF78BFEDDF87C
:0C0D840000E001B0704700BF0006200036
:101A200081B0CDF800E0A9E0012905D140F2020122
:101A30006548FFF773FA04E040F202016248FFF7DD
:101A400099F9BBE0012905D140F280015F48FFF719
:101A500065FA04E040F280015C48FFF78BF9ADE0E5
:101A6000012905D140F220015948FFF757FA04E057
:101A700040F220015648FFF77DF99FE0012905D18A
:101A800040F210015348FFF749FA04E040F2100118
:101A90005048FFF76FF991E0012905D140F240016C
:101AA0004C48FFF73BFA04E040F240014948FFF799
:101AB00061F983E0012905D140F210014648FFF7A2
:101AC0002DFA04E040F210014348FFF753F975E0A6
:101AD000012905D140F204013F48FFF71FFA04E055
:101AE00040F204013C48FFF745F967E0012905D1C0
:101AF00040F204013948FFF711FA04E040F2040112
:101B00003648FFF737F959E0012905D140F22001A5
:101B10003348FFF703FA04E040F220013048FFF7B2
:101B200029F94BE0012905D140F210012C48FFF7BB
:101B3000F5F904E040F210012948FFF71BF93DE0F8
:101B4000012905D140F201012648FFF7E7F904E039
:101B500040F201012348FFF70DF92FE0012905D1DB
:101B600040F280011C48FFF7D9F904E040F28001FF
:101B70001948FFF7FFF821E0012020E000283FF49A
:101B800053AF01283FF45EAF02283FF469AF03284A
:101B90003FF474AF04283FF47FAF05283FF48AAFC9
:101BA00006283FF495AF0728A0D00828ACD0092814
:101BB000B8D00A28C4D00B28D0D0DDE70020DDF84B
:101BC00000E001B0704700BF0012084080100840DC
:101BD000C011084060100840001008402011084063
:081BE00000110840201008402C
:1016980081B0CDF800E0A9E0012905D140F20801A8
:1016A8006548FFF737FC04E040F208016248FFF79D
:1016B8005DFBBBE0012905D140F220015F48FFF73F
:1016C80029FC04E040F220015C48FFF74FFBADE045
:1016D800012905D140F201015948FFF71BFC04E03C
:1016E80040F201015648FFF741FB9FE0012905D16F
:1016F80040F220015348FFF70DFC04E040F22001BE
:101708005048FFF733FB91E0012905D140F204016D
:101718004C48FFF7FFFB04E040F204014948FFF79B
:1017280025FB83E0012905D140F202014548FFF776
:10173800F1FB04E040F202014248FFF717FB75E0B5
:10174800012905D140F208013D48FFF7E3FB04E019
:1017580040F208013A48FFF709FB67E0012905D183
:1017680040F201013848FFF7D5FB04E040F20101DF
:101778003548FFF7FBFA59E0012905D140F220016D
:101788003248FFF7C7FB04E040F220012F48FFF77B
:10179800EDFA4BE0012905D140F210012B48FFF783
:1017A800B9FB04E040F210012848FFF7DFFA3DE0FA
:1017B800012905D140F220012548FFF7ABFB04E0E1
:1017C80040F220012248FFF7D1FA2FE0012905D184
:1017D80040F210011E48FFF79DFB04E040F21001A3
:1017E8001B48FFF7C3FA21E0012020E000283FF45E
:1017F80053AF01283FF45EAF02283FF469AF0328D6
:101808003FF474AF04283FF47FAF05283FF48AAF54
:1018180006283FF495AF0728A0D00828ACD009289F
:10182800B8D00A28C4D00B28D0D0DDE70020DDF8D6
:1018380000E001B0704700BF00120840C011084026
:10184800A0100840401108406010084000110840EE
:04185800A011084093
:1014B80081B0CDF800E0A9E0012905D140F2800112
:1014C8006548FFF727FD04E040F280016248FFF716
:1014D8004DFCBBE0012905D140F210015F48FFF740
:1014E80019FD04E040F210015C48FFF73FFCADE055
:1014F800012905D140F280015948FFF70BFD04E0AE
:1015080040F280015648FFF731FC9FE0012905D1E0
:1015180040F220015348FFF7FDFC04E040F22001AF
:101528005048FFF723FC91E0012905D140F204015E
:101538004C48FFF7EFFC04E040F204014948FFF78C
:1015480015FC83E0012905D140F202014548FFF767
:10155800E1FC04E040F202014248FFF707FC75E0B5
:10156800012905D140F210013F48FFF7D3FC04E000
:1015780040F210013C48FFF7F9FB67E0012905D16B
:1015880040F204013948FFF7C5FC04E040F20401C9
:101598003648FFF7EBFB59E0012905D140F220015D
:1015A8002D48FFF7B7FC04E040F220012A48FFF776
:1015B800DDFB4BE0012905D140F210012648FFF779
:1015C800A9FC04E040F210012348FFF7CFFB3DE0FF
:1015D800012905D140F220012048FFF79BFC04E0D7
:1015E80040F220011D48FFF7C1FB2FE0012905D17A
:1015F80040F210011948FFF78DFC04E040F2100199
:101608001648FFF7B3FB21E0012020E000283FF453
:1016180053AF01283FF45EAF02283FF469AF0328B7
:101628003FF474AF04283FF47FAF05283FF48AAF36
:1016380006283FF495AF0728A0D00828ACD0092881
:10164800B8D00A28C4D00B28D0D0DDE70020DDF8B8
:1016580000E001B0704700BF00110840A011084029
:101668008010084040110840A01008402011084090
:1021700081B0CDF800E011E00846FFF77DFA16E0E7
:102180000846FFF731FD12E00846FFF779FD0EE043
:102190000846FFF785FD0AE0012008E00028EBD0A3
:1021A0000128EDD00228EFD00328F1D0F4E7DDF8C4
:0621B00000E001B07047E1
:1016780081B0CDF800E0016808460449FFF758FC3E
:101688000020DDF800E001B0704700BF54250B00D2
:100F380081B0CDF800E083468C4600230D4A13604B
:100F48006046FFF79BFE0C4C0C4B0D4A19461046A9
:100F58002246FFF715FE0CF10C021268D3B2094ABB
:100F6800126859461046DAB2FFF71AFEDDF800E0BB
:100F780001B070474400002045080B0069090B00C8
:080F8800A1080B00400000204D
:100C840081B0CDF800E040F2000A81464FEA8A01C3
:100C940009EB01010968B1F1FF3F12D009F13401F8
:100CA4004FEA8A03C91809680A4609EB030109686F
:100CB40008461146FFF79EFE0AF1010A1FFA8AFA56
:0A0CC400E4E7DDF800E001B070473E
:1009F80082B0CDF800E000F0FF02130902F00F0208
:100A08001446D8B2FFF75EFE012212B2A240ADF83A
:100A1800042000460A469DF8041000F039F8DDF875
:060A280000E002B070477F
:1006CC0081B027E028484DE028484BE0284849E015
:1006DC00284847E0284845E0284843E0284841E0BE
:1006EC0028483FE028483DE028483BE0284839E0CE
:1006FC00284837E0284835E0284833E0284831E0DE
:10070C0028482FE028482DE028482BE0284829E0ED
:10071C00284827E00028D5D00128D5D00228D5D0EC
:10072C000328D5D00428D5D00528D5D00628D5D077
:10073C000728D5D00828D5D00928D5D00A28D5D057
:10074C000B28D5D00C28D5D00D28D5D00E28D5D037
:10075C000F28D5D01028D5D01128D5D01228D5D017
:10076C001328D5D001B07047001008402010084065
:10077C00401008406010084080100840A01008404D
:10078C00C0100840E010084000110840201108403B
:10079C00401108406011084080110840A011084029
:1007AC00C0110840E0110840001208402012084017
:0807BC004012084060120840E1
:100B880081B0044B1860044B1960044B1A6001B023
:100B9800704700BF780000207C0000208000002003
:100BA80081B000F2280440F20023236000F22804F8
:100BB8000023236080230370041D0123238001295F
:100BC80015D100F22C0444F64F73238000F2400440
:100BD800234B236000F22404224B236000F24404D8
:100BE800214B236000F218044D2323702EE00429C2
:100BF80015D100F22C0440F61773238000F240044C
:100C08001A4B236000F22404194B236000F24404B9
:100C1800184B236000F218040A23237016E01029E9
:100C280014D100F22C0440F20953238000F240044E
:100C3800114B236000F224040D4B236000F244049E
:100C48000C4B236000F2180406232370C1230370A1
:100C580000F2280442F4E0531BB2236001B070474D
:100C680006434D0CED01FC01C7C29C4B010A0A0466
:0C0C780050000001C7C29C1401060606D3
:101BE80081B0CDF800E0016808460449FFF7A0F984
:101BF8000020DDF800E001B0704700BF54250B005D
:101C800081B0CDF800E0016808460449FFF754F937
:101C90000020DDF800E001B0704700BF54250B00C4
:101CA00081B0CDF800E0016808460449FFF744F927
:101CB0000020DDF800E001B0704700BF54250B00A4
:1021280081B0CDF800E011E00846FFF791FD16E018
:102138000846FFF765FD12E00846FFF775FD0EE05B
:102148000846FFF755F90AE0012008E00028EBD01F
:102158000128EDD00228EFD00328F1D0F4E7DDF80C
:0621680000E001B0704729
:101C580081B0CDF800E0002300220321FFF794F8BB
:101C6800034A04490A600020DDF800E001B070472B
:081C780021140B0060000020A4
:100D900084B0CDF800E01FFA82FB1FFA83FC00222A
:100DA0008DF80420ADF8081003904A48FFF76AFF59
:100DB0000398BDF808109DF80420ADF804100290C7
:100DC000FFF7D6FE0298BDF804100025424C2570AE
:100DD0000025424C2570B0F5E13F06D9404CA042B9
:100DE00003D83F4CB4FBF0F308E0B0F5E13F04D882
:100DF0004FF4E134B4FBF0F300E00123ADF804104C
:100E00000290FFF727FE0298BDF8041003F0FF04DC
:100E1000E5B2344C25701C0A04F07F04E5B2324C74
:100E20002570B0F5E13F06D92F4C247844F08005B9
:100E30002D4C257005E02C4C247804F07F052A4CBD
:100E40002570ADF80410FFF793FEBDF804100025DF
:100E5000264C25700BE042F00100C0B20EE042F0DB
:100E60000200C0B20AE042F00300C0B206E001296D
:100E7000F1D00229F3D00329F5D0F4E74FEA8C042E
:100E8000A4B240EA04044FEACB05ADB2E4B22C436D
:100E9000E4B204F07F05154C25700025144C257034
:100EA0000025144C2570144D144C2560144D154C20
:100EB0002560154D154C2560154D164C2560164CBA
:100EC000247844F00105144C2570DDF800E004B0EE
:100ED000704700BFEC240B00F0270F4001240F40A7
:100EE00060E3160000240F4001240F4003240F404C
:100EF00004240F4002240F4021090B008C00002025
:100F000021140B00900000204D090B0094000020DC
:0C0F1000D9080B009800002030270F408B
:100B700081B00448007800F07F010248017001B0A4
:080B8000704700BF03240F4081
:100A540081B00448007840F080010248017001B080
:080A6400704700BF03240F409E
:101C080081B0CDF800E0002300220321FFF7BCF8E3
:101C1800034A04490A600020DDF800E001B070477B
:081C280021140B0060000020F4
:101C300081B0CDF800E0002300220321FFF7A8F8CF
:101C4000034A04490A600020DDF800E001B0704753
:081C500021140B0060000020CC
:1013F80081B0CDF800E0002300220321FFF7C4FCF0
:10140800034A04490A600020DDF800E001B0704793
:0814180021140B00600000200C
:1022D80081B0CDF800E044220B490C48FFF768FFB5
:1022E8000B480221FFF790FD46F6FE17C0F21807CB
:1022F80000BF00BF7F1EFDD100BF00BF00BFDDF8DB
:1023080000E001B0704700BF7C260B00BC250B0025
:0423180000000020A1
:1021B80081B0CDF800E005460C4B1A7001240C4B99
:1021C8001C7001240B4B1C7021240B4B1C700846FF
:1021D800FFF7BEF82846FFF793F80120074C24685C
:1021E800A047DDF800E001B0704700BF9D00002067
:1021F8003B0000209C0000209E000020A40000203E
:1014200082B0CDF800E08DF80400FFF7A1FB084979
:10143000097801F02001C9B201B9F8E79DF804105C
:1014400001F0FF0203490A70DDF800E002B07047C6
:0814500005240F4000240F40A9
:1013C00082B0CDF800E08DF80400FFF7C7FC0849B3
:1013D000097801F02001C9B201B9F8E79DF80410BD
:1013E00001F0FF0203490A70DDF800E002B0704727
:0813F00005280F4000280F4002
:100D5C0081B00448007800F07F010248017001B0B6
:080D6C00704700BF03280F408F
:1013A000024A117860F300011170704790130840F1
:1013B000024A117860F34511117070478413084098
:10145800024A117860F3C301117070478013084085
:10149800024A117860F304111170704783130840F1
:1014A800024A117860F3861111707047831308405F
:10148800024A117860F30411117070478013084004
:10146800024A117860F30411117070478B13084019
:10147800024A117860F30001117070478313084025
:101DB000024A117860F3451111707047881308408A
:101DC000024A117860F304111170704788130840BB
:101DA000024A117860F300011170704781130840F6
:101D8000024A117860F3C711117070478013084040
:101D9000024A117860F341011170704790130840B6
:101DD000024A117860F3C7111170704784130840EC
:101E0000024A117860F34511117070478E13084033
:101DE000024A117860F304111170704783130840A0
:101DF000024A117860F3861111707047831308400E
:101CF000024A117860F30411117070478013084094
:101D0000024A117860F38201117070478013084015
:101D1000024A117860F382011170704789130840FC
:101CC000024A117860F3451111707047881308407B
:101CD000024A117860F304111170704788130840AC
:101CE000024A117860F300011170704781130840B7
:101D5000024A117860F3C711117070478013084070
:101D6000024A117860F3C301117070479013084064
:101D7000024A117860F34511117070478E130840C4
:101D2000024A117860F30001117070478513084072
:101D3000024A117860F34511117070478A13084008
:101D4000024A117860F38201117070478A130840CB
:10102000024A117860F34101117070478A13084039
:10101000024A117860F3C3011170704785130840CC
:10100000024A117860F300011170704783130840A1
:10105000024A117860F345111170704788130840F7
:10104000024A117860F30411117070478813084048
:10103000024A117860F34511117070478D13084012
:100FF000024A117860F30411117070478D13084094
:100F9000024A117860F3C711117070478813084036
:100FA000024A117860F30411117070478D130840E4
:100FD000024A117860F3C7111170704784130840FA
:100FE000024A117860F34511117070478A13084066
:100FB000024A117860F38201117070478A13084069
:100FC000024A117860F34101117070478A1308409A
:10106000024A117860F3041111707047851308402B
:10134800024A117860F382011170704789130840CE
:10133800024A117860F3451111707047881308400C
:10132800024A117860F3041111707047881308405D
:10139000024A117860F34511117070478D130840AF
:10138000024A117860F30411117070478D13084000
:10135800026806490A60011D0A6805490A6000F228
:1013680008010A6803490A60704700BFA800002006
:08137800AC000020B0000020D1
:1013080000F230011C310A6803490A60011D0A68AD
:1013180002490A60704700BFA0000020A400002016
:101E100083B0CDF800E0024610460D228DF8082070
:101E20000A228DF809201FE0FFF7A8F923E00278C5
:101E30002AB10190FFF7A2F90198401CF7E71AE0D8
:101E400002782AB10190FFF799F90198401CF7E751
:101E500002AA1046FFF792F90DF109021046FFF7AA
:101E60008DF908E0062007E00029DDD00129DED049
:101E70000229E5D0F6E70020DDF800E003B0704766
:10117C0081B0CDF800E00178CCB2E0B2034C246829
:10118C00A0470020DDF800E001B0704760000020AF
:1022340085B0CDF800E043F2FE57C0F26E1700BF40
:1022440000BF7F1EFDD100BF00BF00BFFFF756FFD8
:1022540001A8FFF729FE1B480121FFF7D7FD01A8BC
:102264000121FFF7D3FD18480221FFF7CFFD4DF2FE
:10227400FE37C0F2300700BF00BF7F1EFDD100BF94
:1022840000BF00BFFFF7FAFD01A8FFF70DFE0F48DE
:102294000121FFF7BBFD01A80121FFF7B7FD0C48A1
:1022A4000221FFF7B3FD4DF2FE37C0F2300700BF45
:1022B40000BF7F1EFDD100BF00BF00BFDDF800E0FE
:1022C40005B07047130000202100002024000020E6
:0422D4002F000020B7
:1021000083B0CDF800E001A8FEF7D2FF01A9881C3A
:102110000078FFF743F80028F5D001A8FFF7BAF8D8
:08212000DDF800E003B0704798
:1010B00083B0CDF800E046F6FE17C0F2180700BF77
:1010C00000BF7F1EFDD100BF00BF00BF3FE002AAEE
:1010D0002C2111700EE002A94A1C0621117015E0A6
:1010E00002A94A1C0D21117010E002A94A1C10210E
:1010F00011700BE01F4909780029ECD01D490978CF
:101100000129EDD01B4909780229EED027E002AA77
:10111000242111700EE002A94A1C0021117015E073
:1011200002A94A1C0B21117010E002A94A1C1621C9
:1011300011700BE00F4909780029ECD00D490978AE
:101140000129EDD00B4909780229EED007E00A49C0
:1011500009780129BBD0084909780029D7D002A90C
:101160000191062201460198FFF7D8FDDDF800E065
:0C11700003B070479C0000203B000020F2
:100D1C0084B0CDF800E001900291ADF80C20FFF703
:100D2C009FFE0A4B1B7802220199D8B20023FFF7D1
:100D3C00C9FF064B1B78BDF80C200299D8B20123D1
:100D4C00FFF7D4FFDDF800E004B070479D000020F1
:100A6C0082B0CDF800E040F20004ADF80440064C32
:100A7C002468A047BDF9041041EA000000B2DDF87B
:0C0A8C0000E002B0704700BFA80000208E
:1008A00081B0CDF800E004480068FFF7A5FE002005
:0C08B000DDF800E001B0704740000020BF
:1005F80081B0CDF800E04FF0000224490968884234
:1006080007D123490B6823490A6823490A601A4617
:1006180025E022490968884207D121490B68214908
:100628000A681D490A601A4619E01F490968884284
:1006380007D11E490B681E490A6817490A601946FE
:100648000CE01C490968884207D11B490B681B4903
:100658000A6811490A60194600E011460A46184915
:100668000A60017801F00101C9B259B91449096851
:1006780039B122B90520084C2468A04702E0521E6F
:10068800FFE7EEE7DDF800E001B07047400000202A
:10069800440000206800002064000020480000207A
:1006A8004C0000206C000020500000205400002066
:1006B800700000203C00002058000020740000203A
:0406C8005C000020B2
:1008BC0081B0CDF800E004480068FFF797FE0020F7
:0C08CC00DDF800E001B07047480000209B
:1008680081B0CDF800E004480068FFF7C1FE002021
:0C087800DDF800E001B0704750000020E7
:1008840081B0CDF800E004480068FFF7B3FE002013
:0C089400DDF800E001B070473C000020DF
:1009200081B0CDF800E000F023F90648007800F02F
:100930000100C0B200B9F8E703480078DDF800E034
:0C09400001B0704705240F4000240F4058
:10094C0081B00548007800F00100C0B208B1012068
:0C095C0000E0002001B0704705240F40AF
:1008D80081B00548007800F04000C0B208B101209E
:0C08E80000E0002001B0704705240F4024
:1008F40081B0CDF800E000F02FFA0648007800F04F
:100904000100C0B200B9F8E703480078DDF800E060
:0C09140001B0704705280F4000280F407C
:1007E00081B00548007800F00100C0B208B10120D6
:0C07F00000E0002001B0704705280F4019
:1007C40081B00548007800F04000C0B208B10120B3
:0C07D40000E0002001B0704705280F4035
:100CD00082B0CDF800E040F20004ADF80440054CCD
:100CE0002468A047BDF90440044320B2DDF800E0C9
:080CF00002B07047AC000020C7
:1008440081B0CDF800E0064C246808B413460A468B
:100854002146FFF729FD01B0DDF800E001B0704743
:040864004000002030
:1002AC0082B0CDF800E0029E40F200074FF000054E
:1002BC004E4C2468A14208D14D4CD4F800804D4CD2
:1002CC0025684D4C2560454628E04C4C2468A142DD
:1002DC0008D14B4CD4F800804A4C2568464C25601C
:1002EC0045461BE0484C2468A14208D1474CD4F841
:1002FC000080474C2568404C256044460DE0454C39
:10030C002468A14208D1444CD4F80080434C2568A1
:10031C00394C2560444600E02C462546404C25606F
:10032C0001F2080544002C70C5240C70B8B20F46BD
:10033C001D46A84231D23A4CD4F800803346394697
:10034C0017462A460C7804F08004E4B27CB1344C95
:10035C0024685CB1B8F1000F04D10420264C246849
:10036C00A0473FE0A8F10105A846FFE7EAE70C78B3
:10037C0004F00804E4B23CB901F208053C182478F6
:10038C002C70401C80B203E001911146019A07E0E9
:10039C0015463A460F461E46CBE73A4629463346A3
:1003AC001F4C2568147804F08004E4B25CB11C4C3A
:1003BC0024683CB125B904200F4C2468A04711E0F7
:1003CC006D1EFFE7EEE733B1C324147002F208058B
:1003DC0000242C7001E045241470884201D20120C5
:1003EC0000E00020DDF800E002B070474000002083
:1003FC004400002068000020640000204800002019
:10040C004C0000206C000020500000205400002004
:10041C00700000203C0000205800002074000020D8
:04042C005C00002050
:1008200081B0CDF800E0064C246808B413460A46AF
:100830002146FFF73BFD01B0DDF800E001B0704755
:04084000480000204C
:1007FC0081B0CDF800E0064C246808B413460A46D4
:10080C002146FFF74DFD01B0DDF800E001B0704767
:04081C005000002068
:10098C0081B0CDF800E0064C246808B413460A4642
:10099C002146FFF785FC01B0DDF800E001B070479F
:0409AC003C000020EB
:100CF80082B0CDF800E040F20004ADF80440044CA6
:100D08002468A047BDF90400DDF800E002B0704790
:040D1800B000002007
:1009680081B0CDF800E0064C246808B413460A4666
:100978002146FFF759FD01B0DDF800E001B07047EE
:04098800400000200B
:1004300082B0CDF800E0029C40F2000601274FF0A8
:1004400000055F4C2468A14208D15E4CD4F80080BE
:100450005D4C25685D4C2560454628E05C4C246871
:10046000A14208D15B4CD4F800805B4C2568574C06
:10047000256045461BE0594C2468A14208D1584CE0
:10048000D4F80080574C2568504C256044460DE058
:10049000554C2468A14208D1544CD4F80080544CE7
:1004A00025684A4C2560444600E02C462546514CC0
:1004B000256001F208054400A4B244F001042C7048
:1004C0000846B5B21E46FBB24A4C2168019131463E
:1004D000AEB2019D047804F08004E4B25CB1454CF6
:1004E00024683CB125B90320384C2468A04762E059
:1004F0006D1EFFE7EEE7047804F00804E4B28CB95F
:10050000B41CA4B28C420DD2951900F208042478D0
:100510002C70751CADB223B1002400239DB2E3B250
:10052000FFE746E0047804F00804E4B2002C38D178
:10053000022902D04024047002E00BB94024047068
:10054000951900F2080424782C70741C3BB1002328
:100550000025022901D10E46B6E7A9B200E0A1B2FA
:10056000244C2368ADF8041011460246BDF804007F
:10057000147804F08004E4B25CB11E4C24683CB1F1
:1005800023B90320114C2468A04714E05B1EFFE749
:10059000EEE7C32414700D1802F2080424782C70BE
:1005A00009E0C3240470951900F2080424782C7023
:1005B00001E00E4688E7DDF800E002B0704700BFBA
:1005C000400000204400002068000020640000205B
:1005D000480000204C0000206C000020500000204B
:1005E00054000020700000203C0000205800002033
:0805F000740000205C000020F3
:1009B00081B0CDF800E0064C246808B413460A461E
:1009C0002146FFF735FD01B0DDF800E001B07047CA
:0409D00048000020BB
:1009D40081B0CDF800E0064C246808B413460A46FA
:1009E4002146FFF723FD01B0DDF800E001B07047B8
:0409F400500000208F
:100A300081B0CDF800E0064C246808B413460A469D
:100A40002146FFF7F5FC01B0DDF800E001B070478A
:040A50003C00002046
:10119C0080F0FF04E4B2881CFFE70A7884EA0203BB
:1011AC00DBB2DCB24A1C114603F00102D2B22AB106
:1011BC006308DBB283F03103DBB201E06308DBB21E
:1011CC00DCB203F00102D2B22AB16308DBB283F0C5
:1011DC003103DBB201E06308DBB2DCB203F00102E5
:1011EC00D2B22AB16308DBB283F03103DBB201E087
:1011FC006308DBB2DCB203F00102D2B22AB163089D
:10120C00DBB283F03103DBB201E06308DBB2DCB2AA
:10121C0003F00102D2B22AB16308DBB283F03103CE
:10122C00DBB201E06308DBB2DCB203F00102D2B244
:10123C002AB16308DBB283F03103DBB201E063084F
:10124C00DBB2DCB203F00102D2B22AB16308DBB22A
:10125C0083F03103DBB201E06308DBB2DCB203F0F4
:10126C000102D2B22AB16208D2B282F03102D2B2F9
:10127C0002E06208D3B2DAB2D4B281428DD384F0E8
:06128C00FF02D0B2704722
:101294000178090289B201F47F4292B2411C0978B3
:1012A40042EA010189B200EE901AF8EE600A084998
:1012B40000EE101AC0EE800A064900EE101A60EE25
:1012C400200A054900EE101A30EEC00A704700BF2C
:0C12D40000FF7F4700002F430000344261
:101EAC0083B0CDF800E00446002000235BB28DED3A
:101EBC00020A0299B1F1FF3F05D170492046FFF7A4
:101ECC0009FA0320D5E0012502A9C91C097801F003
:101EDC008001C9B269B102A9CA1C117881F08001D4
:101EEC001170691CCAB22D212170641CD7B2264610
:101EFC0001E02646EFB2029929B961493046FFF755
:101F0C00E9F90020B5E00299B1F1FF4F05D15D4927
:101F1C003046FFF7DFF9F8B2ABE08DF80430C3B20E
:101F2C0034469DF90400DDED020AB7EE000AF4EE2A
:101F3C00C00AF1EE10FA0ADADDED020AB2EE040A7A
:101F4C0020EE800A8DED020A401E40B2EBE7DDED7B
:101F5C00020AB2EE040AF4EEC00AF1EE10FA0BDB40
:101F6C00DDED020A484900EE101A20EE800A8DEDD4
:101F7C00020A401C40B2EAE702994900029102A908
:101F8C00C91C09787F39CDB202A9CA1C0121117074
:101F9C000299A940029102A9C91C0978303121701B
:101FAC00621C012803DB062801DC154603E02E2108
:101FBC001170551C0123062144B2C8B210B302A9FA
:101FCC00CA1C0021117002998A0002998918029189
:101FDC0002994900029102A9C91C09783031297073
:101FEC006D1C63B9611E49B24AB221B92E21297008
:101FFC006D1C012100E0D9B254B2CBB2FFE7401EF8
:10200C00C0B2DBE72A4660B2511E0978302901D1F3
:10201C00521EF9E7511E09782E2901D1521EFFE7F5
:10202C0018B365211170521C002806DA2D2111708D
:10203C00521C414248B243B200E043B2D8B2D9B2CA
:10204C00092907D90A21B0FBF1F1C9B2303111705D
:10205C00531C00E013460A22B0FBF2F102FB110103
:10206C00C9B230311970581C00E0104600210170C3
:10207C000020DDF800E003B0704700BF3100002005
:0C208C003500002037000020CDCCCC3DFA
:1012E00081B00091014600980B461C465A1C1546D9
:1012F0000346421C10461A78227022780AB12B4607
:08130000F3E7084601B0704755
:101E800083B0CDF800E001A8FFF712F901A8C11C4A
:101E9000401D0078FFF782F90028F4D001A8FFF771
:0A1EA000E7F8DDF800E003B070473A
:10107000C11C0978090289B201F47F4292B2011DB4
:10108000097842EA010189B200EE901AF8EE600A8E
:10109000054900EE101AC0EE800A044900EE101A4D
:1010A00020EE200A704700BF00FF7F470000C842C3
:1024280081B0CDF800E01F4B1F4A204C20480068BF
:1024380040F002011E480160012A08D0032A06D094
:10244800042A04D0102A02D0302A00D002E0194809
:10245800026002E0012117480160C4F3C002164976
:10246800086862F3C3000860C4F380021249086870
:1024780062F382000860C4F340020F49086862F3FF
:1024880041000860C4F300020B49086862F30000C9
:102498000860FFF7BFFE09480360DDF800E001B0FF
:1024A800704700BFE00100000100000000000000CC
:1024B80008E000E00401084008A4004008010840C2
:10221C0046F6FE17C0F2180700BF00BF7F1EFDD1A7
:08222C0000BF00BF00BF7047B6
:1024C80081B004490448016004490548016001B02D
:1024D800704700BF80BB000084000020000000009F
:0424E8008800002048
:0823A80081B0FEE701B07047AF
:1023D40081B04EF68850CEF20000016841F47001DD
:1023E400016000BF00BF00BF00BFF1EE100A40F45F
:0A23F4004000E1EE100A01B070474E
:1023B00081B0DFF81000DFF810100860D0F800D00E
:1023C00000F004B800000B0008ED00E000BF01B011
:0223D000704754
:10268C0000B5DFF824B0DFF824A0DFF824C0FFF792
:10269C00B5FDDFF820B0DFF820A0DFF820C0FFF791
:1026AC00ADFD00BD704700BF000000203B000020C6
:1026BC001C260B003C0000206000002058260B005C
:1027280000B5DFF810B0DFF810A0FFF7F3FD00BD2B
:0C273800704700BF00000020B40000202B
:1024EC008500000084000000FFFFFFFF00000000DB
:1024FC0000000000000000000000000000000000D0
:10250C0000000000000000000000000000000000BF
:10251C00000000000010000000100000000000008F
:10252C00000000000000000000000000000000009F
:10253C00000000000000000000000000000000008F
:08254C00000000000000000087
:10255400D5000000D4000000FFFFFFFF02000000D0
:102564000000000000000000000000000000000067
:102574000000000000000000000000000000000057
:102584000000000000100000001000000000000027
:102594000000000000000000000000000000000037
:1025A4000000000000000000000000000000000027
:0825B40000000000000000001F
:1025BC00A1130B00B1130B0059140B0099140B0051
:1025CC00A9140B0089140B0069140B0079140B006F
:1025DC00B11D0B00C11D0B00A11D0B00811D0B00BB
:1025EC00FFFFFFFFFFFFFFFFFFFFFFFFFFFFFFFFEF
:1025FC00FFFFFFFFFFFFFFFFFFFFFFFFFFFFFFFFDF
:10260C00FFFFFFFFFFFFFFFFFFFFFFFFFFFFFFFFCE
:10261C0053797374656D20496E697469616C697A5C
:10262C0065640054656D70657261747572653A20ED
:04263C0000B04300A7
:1026400048756D69646974793A200025004E614EC1
:07265000003000494E460076
:04265800004C0040F2
:04265C0000400040FA
:042660000000000076
:0426640000440040EE
:04266800000000006E
:04266C0000480040E2
:042670000000000066
:042674000000000062
:04267800000000005E
:0C267C00A1080B0045080B0069090B00C9
:04268800010000004D
:00000001FF
